{
  "contractName": "CertificateStorage",
  "abi": [
    {
      "anonymous": false,
      "inputs": [
        {
          "indexed": false,
          "internalType": "string",
          "name": "hash",
          "type": "string"
        },
        {
          "indexed": false,
          "internalType": "address",
          "name": "issuer",
          "type": "address"
        },
        {
          "indexed": false,
          "internalType": "uint256",
          "name": "timestamp",
          "type": "uint256"
        }
      ],
      "name": "CertificateStored",
      "type": "event"
    },
    {
      "inputs": [
        {
          "internalType": "string",
          "name": "_hash",
          "type": "string"
        }
      ],
      "name": "storeCertificate",
      "outputs": [],
      "stateMutability": "nonpayable",
      "type": "function"
    },
    {
      "inputs": [
        {
          "internalType": "string",
          "name": "_hash",
          "type": "string"
        }
      ],
      "name": "verifyCertificate",
      "outputs": [
        {
          "internalType": "address",
          "name": "issuer",
          "type": "address"
        },
        {
          "internalType": "uint256",
          "name": "timestamp",
          "type": "uint256"
        }
      ],
      "stateMutability": "view",
      "type": "function",
      "constant": true
    }
  ],
  "bytecode": "0x608060405234801561001057600080fd5b506108f9806100206000396000f3fe608060405234801561001057600080fd5b50600436106100365760003560e01c80638b23d8751461003b578063aaf400401461006c575b600080fd5b610055600480360381019061005091906104b5565b610088565b604051610063929190610655565b60405180910390f35b610086600480360381019061008191906104b5565b610205565b005b6000806000808460405161009c919061063e565b90815260200160405180910390206040518060600160405290816000820180546100c590610822565b80601f01602080910402602001604051908101604052809291908181526020018280546100f190610822565b801561013e5780601f106101135761010080835404028352916020019161013e565b820191906000526020600020905b81548152906001019060200180831161012157829003601f168201915b505050505081526020016001820160009054906101000a900473ffffffffffffffffffffffffffffffffffffffff1673ffffffffffffffffffffffffffffffffffffffff1673ffffffffffffffffffffffffffffffffffffffff16815260200160028201548152505090506000816000015151116101f1576040517f08c379a00000000000000000000000000000000000000000000000000000000081526004016101e8906106dc565b60405180910390fd5b806020015181604001519250925050915091565b6000815111610249576040517f08c379a0000000000000000000000000000000000000000000000000000000008152600401610240906106bc565b60405180910390fd5b6000808260405161025a919061063e565b908152602001604051809103902060020154146102ac576040517f08c379a00000000000000000000000000000000000000000000000000000000081526004016102a3906106fc565b60405180910390fd5b60405180606001604052808281526020013373ffffffffffffffffffffffffffffffffffffffff168152602001428152506000826040516102ed919061063e565b908152602001604051809103902060008201518160000190805190602001906103179291906103aa565b5060208201518160010160006101000a81548173ffffffffffffffffffffffffffffffffffffffff021916908373ffffffffffffffffffffffffffffffffffffffff160217905550604082015181600201559050507f9b570906ee2b6cce3c6b0dfc73c61a7c38d4e825722ef4f3589cf07d7faeca8e81334260405161039f9392919061067e565b60405180910390a150565b8280546103b690610822565b90600052602060002090601f0160209004810192826103d8576000855561041f565b82601f106103f157805160ff191683800117855561041f565b8280016001018555821561041f579182015b8281111561041e578251825591602001919060010190610403565b5b50905061042c9190610430565b5090565b5b80821115610449576000816000905550600101610431565b5090565b600061046061045b8461074d565b61071c565b90508281526020810184848401111561047857600080fd5b6104838482856107e0565b509392505050565b600082601f83011261049c57600080fd5b81356104ac84826020860161044d565b91505092915050565b6000602082840312156104c757600080fd5b600082013567ffffffffffffffff8111156104e157600080fd5b6104ed8482850161048b565b91505092915050565b6104ff816107a4565b82525050565b60006105108261077d565b61051a8185610788565b935061052a8185602086016107ef565b610533816108b2565b840191505092915050565b60006105498261077d565b6105538185610799565b93506105638185602086016107ef565b80840191505092915050565b600061057c601483610788565b91507f486173682063616e6e6f7420626520656d7074790000000000000000000000006000830152602082019050919050565b60006105bc601583610788565b91507f4365727469666963617465206e6f7420666f756e6400000000000000000000006000830152602082019050919050565b60006105fc601a83610788565b91507f436572746966696361746520616c7265616479206578697374730000000000006000830152602082019050919050565b610638816107d6565b82525050565b600061064a828461053e565b915081905092915050565b600060408201905061066a60008301856104f6565b610677602083018461062f565b9392505050565b600060608201905081810360008301526106988186610505565b90506106a760208301856104f6565b6106b4604083018461062f565b949350505050565b600060208201905081810360008301526106d58161056f565b9050919050565b600060208201905081810360008301526106f5816105af565b9050919050565b60006020820190508181036000830152610715816105ef565b9050919050565b6000604051905081810181811067ffffffffffffffff8211171561074357610742610883565b5b8060405250919050565b600067ffffffffffffffff82111561076857610767610883565b5b601f19601f8301169050602081019050919050565b600081519050919050565b600082825260208201905092915050565b600081905092915050565b60006107af826107b6565b9050919050565b600073ffffffffffffffffffffffffffffffffffffffff82169050919050565b6000819050919050565b82818337600083830152505050565b60005b8381101561080d5780820151818401526020810190506107f2565b8381111561081c576000848401525b50505050565b6000600282049050600182168061083a57607f821691505b6020821081141561084e5761084d610854565b5b50919050565b7f4e487b7100000000000000000000000000000000000000000000000000000000600052602260045260246000fd5b7f4e487b7100000000000000000000000000000000000000000000000000000000600052604160045260246000fd5b6000601f19601f830116905091905056fea2646970667358221220eb93fa7b8618ac947d1e2e62028a3e42240839928e53ede74902448376f3715c64736f6c63430008000033",
  "immutableReferences": {},
  "source": "// SPDX-License-Identifier: MIT\r\npragma solidity ^0.8.0;\r\n\r\ncontract CertificateStorage {\r\n    struct Certificate {\r\n        string hash;\r\n        address issuer;\r\n        uint256 timestamp;\r\n    }\r\n\r\n    mapping(string => Certificate) private certificates;\r\n\r\n    event CertificateStored(string hash, address issuer, uint256 timestamp);\r\n\r\n    function storeCertificate(string memory _hash) public {\r\n        require(bytes(_hash).length > 0, \"Hash cannot be empty\");\r\n        require(certificates[_hash].timestamp == 0, \"Certificate already exists\");\r\n\r\n        certificates[_hash] = Certificate({\r\n            hash: _hash,\r\n            issuer: msg.sender,\r\n            timestamp: block.timestamp\r\n        });\r\n\r\n        emit CertificateStored(_hash, msg.sender, block.timestamp);\r\n    }\r\n\r\n    function verifyCertificate(string memory _hash)\r\n        public\r\n        view\r\n        returns (address issuer, uint256 timestamp)\r\n    {\r\n        Certificate memory cert = certificates[_hash];\r\n        require(bytes(cert.hash).length > 0, \"Certificate not found\");\r\n        return (cert.issuer, cert.timestamp);\r\n    }\r\n}",
  "sourcePath": "D:\\blockchain-certificates\\contracts\\CertificateStorage.sol",
  "compiler": {
    "name": "solc",
    "version": "0.8.0+commit.c7dfd78e.Emscripten.clang"
  },
  "schemaVersion": "3.4.16",
  "updatedAt": "2025-11-20T16:05:19.962Z",
  "networkType": "ethereum",
  "devdoc": {
    "kind": "dev",
    "methods": {},
    "version": 1
  },
  "userdoc": {
    "kind": "user",
    "methods": {},
    "version": 1
  }
}